:040000000200543274
:03000B000200EF01
:200010000000E2FBEAF2802C0000E0FBEAF08024E6B50202EBF62200E2B50202EBF22200D6
:20003000E0B50202EBF02230F6E0A88220F5D3EAC6F582228B822230F6E6A88220F5D980E6
:01005000CFE0
:2000AD007508807509A7750ACB750BE7750CF9750DFF750EF9750FE77510CB7511A775127A
:2000CD0080751359751435751519751607751701751807751919751A35751B59751C0002B7
:0200ED000051C0
:0300510002011990
:2000EF00C0E0C007C001C0D075D000AF1C051CEF2408F9879074EC251C5003751C00758C57
:18010F00F1D0D0D001D007D0E032758902758CF1D2A9D2AFD28C80FEF3
:06008300E478FFF6D8FD51
:200061007900E94400601B7A0090012B780175A000E493F2A308B8000205A0D9F4DAF27519
:02008100A0FFDE
:200089007800E84400600A790175A000E4F309D8FC7800E84400600C7900900001E4F0A375
:0400A900D8FCD9FAAC
:0D00540075811C120127E582600302005136
:0401270075820022BB
:00000001FF
